:100000005CC000007FC000007DC000007BC000001D
:1000100079C0000077C0000075C0000073C0000008
:1000200071C000006FC000006DC000006BC0000018
:1000300069C0000067C0000065C0000063C0000028
:10004000C0C200005FC000002EC500005EC50000F9
:1000500059C0000057C0000055C0000053C0000048
:1000600051C000004FC00000000000080002010065
:100070000003040700000000000000000102040863
:100080001020408001020408102001020408102002
:10009000040404040404040402020202020203032E
:1000A0000303030300000000250028002B000000CC
:1000B0000000240027002A00AA0511241FBECFEF4C
:1000C000D8E0DEBFCDBF11E0A0E0B1E0ECE2FDE0A2
:1000D00002C005900D92A032B107D9F721E0A0E24D
:1000E000B1E001C01D92A33FB207E1F710E0CDE5FA
:1000F000D0E003C02197FE0111D6CC35D107D1F74E
:1001000002D212C67DCF611101C03AC36130E9F35A
:1001100062E0FBCF662311F061E06EC360E0FDCFCB
:10012000AB01BC0186E391E09BC58F929F92AF9299
:10013000BF92CF92DF92EF92FF920F931F93CF93D4
:10014000DF93CDB7DEB77B014A015901CDB6DEB6EC
:100150009B01220F331F4DB75EB7421B530B0FB6E7
:10016000F8945EBF0FBE4DBF0DB71EB70F5F1F4F98
:10017000E82FF0E0EE0FFF1FEE5FFE4F0190F081E1
:10018000E02DC8010995F801D401E00EF11EEE152D
:10019000FF0519F081918D93FACF81E0F5018083FD
:1001A0000FB6F894DEBE0FBECDBEDF91CF911F918A
:1001B0000F91FF90EF90DF90CF90BF90AF909F9006
:1001C0008F9008959F92AF92BF92CF92DF92EF925D
:1001D000FF920F931F93CF93DF93CDB7DEB7C05439
:1001E000D1090FB6F894DEBF0FBECDBFB82E8B017C
:1001F000942EA52E6901E82EF12CEE0CFF1CF701C0
:10020000E050FF4F0190F081E02D09958017910794
:10021000C9F49601492D5A2DBC018B2D86DFC05C97
:10022000DF4F0FB6F894DEBF0FBECDBFDF91CF9189
:100230001F910F91FF90EF90DF90CF90BF90AF9004
:100240009F9008958017910748F4E92DFA2D0E0F1D
:100250001F1FE017F10711F11192FBCF9801220F38
:10026000331F2817390728F09601492D5A2DB80158
:10027000D4CFB8011DD5CB010197809FB001819FDC
:10028000700D909F700D1124F701EE5FFE4F0190ED
:10029000F081E02DCE0101960995E6CFF60110829E
:1002A000BECF86E391E0D5C20895CF92DF92EF9260
:1002B000FF92CF93DF9300D0CDB7DEB7C09004019B
:1002C000D0900501E0900601F0900701A70196018A
:1002D0006091D9017091DA018091DB019091DC018C
:1002E00048D1882341F0C092D901D092DA01E0923E
:1002F000DB01F092DC01C0900801D0900901E09090
:100300000A01F0900B01A70196016091DD01709147
:10031000DE018091DF019091E0012BD1882341F033
:10032000C092DD01D092DE01E092DF01F092E001A7
:100330006091E1017091E2019E012F5F3F4FAE019C
:100340004E5F5F4F80E03EDF8981882319F06A812C
:100350008DE0E0DE0F900F90DF91CF91FF90EF9056
:10036000DF90CF900895CF92DF92EF92FF921F938C
:10037000CF93DF931092210110922001C3EDD1E0C1
:100380008EE1FE0111928A95E9F711E01C8FE4E0FD
:10039000F1E080819181A281B3818E839F83A887C0
:1003A000B98784819581A681B7818A879B87AC872D
:1003B000BD87C12CD12C7601C394C982DA82EB822D
:1003C000FC8281E090E0998B888B9F878E8780E00C
:1003D0006BDF1D831C8A1D8FCD8ADE8AEF8AF88E23
:1003E00061E08DE090DE198FDF91CF911F91FF903A
:1003F000EF90DF90CF9008958091D301811103C0D9
:1004000081E08093D3018091E701811103C081E0F5
:100410008093E701089526E030E040E855E260E08F
:1004200070E090E080E000C0892B19F486E391E051
:10043000DAC208950895CF92DF92EF92FF920F9360
:100440001F9315D16093220170932301809324019F
:1004500090932501009126011091270120912801F8
:10046000309129016B017C01C01AD10AE20AF30A1A
:1004700097018601003117422105310508F160938B
:10048000260170932701809328019093290125D09C
:10049000EED0009126011091270120912801309182
:1004A0002901601B710B820B930B60317742810530
:1004B000910570F081E090E090932C0180932B01E6
:1004C00081E01F910F91FF90EF90DF90CF90089502
:1004D00010922C0110922B01F3CF80912A0191E010
:1004E000980F90932A01882349F021E030E030935F
:1004F0002C0120932B0180932A010895D6DE809150
:100500002A018150F8CFCF93DF931092F20110921D
:10051000F101D2D080DFC0910C01D0910D01198280
:10052000188221DFF89486DF81E028813981232B2E
:1005300009F080E08093F10178948091F1018111BC
:1005400007C05ADFF89490E080E0DF91CF910895E2
:1005500081E028813981232B09F480E08093F20126
:100560009091F20181E0911180E08093F10163DFCD
:10057000E4CF03D008F481E00895990F0008550FE7
:10058000AA0BE0E8FEEF16161706E807F907C0F019
:1005900012161306E407F50798F0621B730B840B21
:1005A000950B39F40A2661F0232B242B252B21F4FB
:1005B00008950A2609F4A140A6958FEF811D811D9B
:1005C00008951F920F920FB60F9211242F933F930D
:1005D0008F939F93AF93BF9380912E0190912F01A2
:1005E000A0913001B091310130912D0123E0230F12
:1005F0002D3758F50196A11DB11D20932D01809333
:100600002E0190932F01A0933001B093310180917E
:10061000320190913301A0913401B09135010196DE
:10062000A11DB11D8093320190933301A093340139
:10063000B0933501BF91AF919F918F913F912F91D1
:100640000F900FBE0F901F90189526E8230F02966B
:10065000A11DB11DD2CF2FB7F89460912E017091DA
:100660002F0180913001909131012FBF08953FB744
:10067000F8948091320190913301A0913401B091AE
:10068000350126B5A89B05C02F3F19F00196A11D85
:10069000B11D3FBFBA2FA92F982F8827BC01CD01CC
:1006A000620F711D811D911D42E0660F771F881F2B
:1006B000991F4A95D1F70895789484B5826084BDD6
:1006C00084B5816084BD85B5826085BD85B5816056
:1006D00085BDEEE6F0E0808181608083E1E8F0E0B6
:1006E0001082808182608083808181608083E0E8E5
:1006F000F0E0808181608083E1EBF0E080818460C4
:100700008083E0EBF0E0808181608083EAE7F0E0C5
:100710008081846080838081826080838081816029
:1007200080838081806880831092C1000895833027
:1007300081F028F4813099F08230A9F00895873053
:10074000A9F08830C9F08430B1F4809180008F7DA9
:1007500003C0809180008F7780938000089584B5D6
:100760008F7784BD089584B58F7DFBCF8091B000D5
:100770008F778093B00008958091B0008F7DF9CF7E
:10078000CF93DF9390E0FC01E458FF4F2491805712
:100790009F4FFC0184918823C9F090E0880F991F36
:1007A000FC01E255FF4FA591B491FC01EC55FF4FC0
:1007B000C591D49161110DC09FB7F8948C9120958B
:1007C00082238C938881282328839FBFDF91CF9138
:1007D0000895623051F49FB7F8943C91822F809530
:1007E00083238C93E8812E2BEFCF8FB7F894EC9175
:1007F0002E2B2C938FBFEACF1F93CF93DF93282FFD
:1008000030E0F901E859FF4F8491F901E458FF4FB6
:10081000D491F901E057FF4FC491CC23A1F0162FDA
:10082000811185DFEC2FF0E0EE0FFF1FEC55FF4F3D
:10083000A591B4918FB7F894EC91111108C0D0959F
:10084000DE23DC938FBFDF91CF911F910895DE2BC4
:10085000F8CFFC01918D228D892F90E0805C9F4F15
:10086000821B91098F7399270895FC01918D828DC8
:10087000981731F0828DE80FF11D858D90E0089575
:100880008FEF9FEF0895FC01918D828D981761F095
:10089000A28DAE0FBF2FB11D5D968C91928D9F5F83
:1008A0009F73928F90E008958FEF9FEF0895FC0162
:1008B000538D448D252F30E0842F90E0821B930BC5
:1008C000541710F0CF96089501970895FC01A48D58
:1008D000A80FB92FB11DA35ABF4F2C91848D90E062
:1008E00001968F739927848FA689B7892C93A08945
:1008F000B1898C91837080648C93938D848D9813CF
:1009000006C00288F389E02D80818F7D8083089561
:10091000CF93DF93EC01888D8823B1F0AA89BB893E
:10092000E889F9898C9185FD03C0808186FD0CC022
:100930000FB607FCF7CF8C9185FFF2CF808185FF42
:10094000EDCFCE01C3DFEACFDF91CF910895EF92D3
:10095000FF920F931F93CF93DF93EC0181E0888F79
:100960009B8D8C8D98131AC0E889F989808185FF49
:1009700015C09FB7F894EE89FF896083E889F989EB
:1009800080818370806480839FBF81E090E0DF91ED
:10099000CF911F910F91FF90EF900895F62E0B8D40
:1009A00010E00F5F1F4F0F731127E02E8C8D8E11FB
:1009B0000BC00FB607FCFACFE889F989808185FF63
:1009C000F5CFCE0183DFF2CFEB8DEC0FFD2FF11DC4
:1009D000E35AFF4FF0829FB7F8940B8FEA89FB89A7
:1009E00080818062D0CFCF92DF92EF92FF921F93EF
:1009F000CF93DF93EC016A017B01122FE889F9891B
:100A000082E08083C11481EED806E104F10499F0FC
:100A100060E079E08DE390E0A70196015DD121507F
:100A20003109410951095695479537952795211563
:100A300080E1380790F0E889F989108260E874E86D
:100A40008EE190E0A701960147D12150310941097B
:100A500051095695479537952795EC85FD85308347
:100A6000EE85FF852083188EEC89FD891083EA8945
:100A7000FB89808180618083EA89FB89808188602D
:100A80008083EA89FB89808180688083EA89FB8989
:100A900080818F7D8083DF91CF911F91FF90EF90B8
:100AA000DF90CF9008951F920F920FB60F921124EE
:100AB0002F938F939F93EF93FF93E0914601F091D3
:100AC00047018081E0914C01F0914D0182FD1BC0F6
:100AD000908180914F018F5F8F7320915001821719
:100AE00041F0E0914F01F0E0EA5CFE4F958F80937A
:100AF0004F01FF91EF919F918F912F910F900FBE1A
:100B00000F901F9018958081F4CF1F920F920FB60F
:100B10000F9211242F933F934F935F936F937F9383
:100B20008F939F93AF93BF93EF93FF9386E391E0EF
:100B3000CDDEFF91EF91BF91AF919F918F917F910A
:100B40006F915F914F913F912F910F900FBE0F903A
:100B50001F901895E6E3F1E01382128288EE93E08D
:100B6000A0E0B0E084839583A683B78382E191E01F
:100B70009183808385EC90E09587848784EC90E076
:100B80009787868780EC90E0918B808B81EC90E05A
:100B9000938B828B82EC90E0958B848B86EC90E03B
:100BA000978B868B118E128E138E148E0895AF92B2
:100BB000BF92CF92DF92EF92FF920F931F93CF934A
:100BC000DF936C017B018B01040F151FEB015E01AC
:100BD000AE18BF08C017D10759F06991D601ED9141
:100BE000FC910190F081E02DC6010995892B79F7E0
:100BF000C501DF91CF911F910F91FF90EF90DF9092
:100C0000CF90BF90AF9008950F931F93CF93DF9332
:100C1000EC0121DD688779878A879B87E881F981E4
:100C20000284F385E02DCE01099597FF14C013DDF2
:100C3000088519852A853B85601B710B820B930BF8
:100C40000C811D812E813F816017710782079307F8
:100C500028F38FEF9FEFDF91CF911F910F910895B0
:100C6000AF92BF92CF92DF92EF92FF920F931F93BA
:100C7000CF93DF935C017B018B01040F151FEB0108
:100C80006E01CE18DF08C017D10731F0C501BCDFF7
:100C900097FD02C08993F4CFC601DF91CF911F91D8
:100CA0000F91FF90EF90DF90CF90BF90AF9008959D
:100CB000AA1BBB1B51E107C0AA1FBB1FA617B70782
:100CC00010F0A61BB70B881F991F5A95A9F780959E
:100CD0009095BC01CD010895A1E21A2EAA1BBB1B61
:100CE000FD010DC0AA1FBB1FEE1FFF1FA217B307F8
:100CF000E407F50720F0A21BB30BE40BF50B661F0E
:100D0000771F881F991F1A9469F7609570958095D1
:100D100090959B01AC01BD01CF010895EE0FFF1F1F
:0C0D20000590F491E02D0994F894FFCFA9
:100D2C005101900000000000000040402001000034
:100D3C000000A704D705570488042904430435048C
:00000001FF
