:100000005CC0000081C000007FC000007DC0000017
:100010007BC0000079C0000077C0000075C0000000
:1000200073C0000071C000006FC000006DC0000010
:100030006BC0000069C0000067C0000065C0000020
:1000400030C6000061C000000C94C3080C94F50891
:100050005BC0000059C0000057C0000055C0000040
:1000600053C0000051C00000000000080002010061
:100070000003040700000000000000000102040863
:100080001020408001020408102001020408102002
:10009000040404040404040402020202020203032E
:1000A0000303030300000000250028002B000000CC
:1000B0000000240027002A001A0911241FBECFEFD8
:1000C000D8E0DEBFCDBF11E0A0E0B1E0E8E5F9E1A6
:1000D00002C005900D92A634B107D9F722E0A6E43C
:1000E000B1E001C01D92A834B207E1F710E0CDE500
:1000F000D0E004C02197FE010E94FB0BCC35D10754
:10010000C9F728D40C94AA0C7BCF611101C0A8C6F2
:100110006130E9F362E0FBCF662311F061E0DCC6F9
:1001200060E0FDCFAB01BC018CE591E00C949D0B30
:100130008F929F92AF92BF92CF92DF92EF92FF92F7
:100140000F931F93CF93DF93CDB7DEB77B014A01A7
:100150005901CDB6DEB69B01220F331F4DB75EB7F6
:10016000421B530B0FB6F8945EBF0FBE4DBF0DB7C9
:100170001EB70F5F1F4FE82FF0E0EE0FFF1FEE5F7F
:10018000FE4F0190F081E02DC8010995F801D401DE
:10019000E00EF11EEE15FF0519F081918D93FACF57
:1001A00081E0F50180830FB6F894DEBE0FBECDBEB0
:1001B000DF91CF911F910F91FF90EF90DF90CF9043
:1001C000BF90AF909F908F9008959F92AF92BF92F3
:1001D000CF92DF92EF92FF920F931F93CF93DF9313
:1001E000CDB7DEB7C054D1090FB6F894DEBF0FBE4D
:1001F000CDBFB82E8B01942EA52E6901E82EF12CCF
:10020000EE0CFF1CF701E050FF4F0190F081E02D54
:10021000099580179107C9F49601492D5A2DBC0103
:100220008B2D86DFC05CDF4F0FB6F894DEBF0FBEAC
:10023000CDBFDF91CF911F910F91FF90EF90DF9095
:10024000CF90BF90AF909F9008958017910748F48A
:10025000E92DFA2D0E0F1F1FE017F10719F111926A
:10026000FBCF9801220F331F2817390728F096017A
:10027000492D5A2DB801D4CFB8010E94C50BCB012E
:100280000197809FB001819F700D909F700D112488
:10029000F701EE5FFE4F0190F081E02DCE01019657
:1002A0000995E5CFF6011082BDCF8CE591E041C6FE
:1002B00008954F925F926F927F928F929F92AF922A
:1002C000BF92CF92EF92FF920F931F93CF93DF9342
:1002D000CDB7DEB72B013A01F02E9C2DB40130E0F2
:1002E0002830310511F424E030E00AE010E09923D1
:1002F00051F000E110E0913031F008E010E0923070
:1003000011F002E010E08111CDC0F1101AC0269D5D
:10031000A001279D500D369D500D1124B2018CE592
:1003200091E0DF91CF911F910F91FF90EF90CF90CF
:10033000BF90AF909F908F907F906F905F904F9005
:10034000A6C78CE591E0DFD7E11015C0640C751CE1
:100350006414750409F4A6C0F20161912F01F1E063
:10036000A8018CE591E0FF1203C00E94550AF0CF6E
:100370000E945B0AEDCF81E0E81215C0E1E06E1A41
:10038000710808F48FC0F201619171912F01F1E0C1
:10039000A8018CE591E0FF1203C00E946B0AEECF2A
:1003A0000E94700AEBCF82E0E81217C0E1E06E1AFB
:1003B000710808F477C0F2014191519161917191F6
:1003C0002F01F1E098018CE591E0FF1203C00E943B
:1003D000490AECCF0E94800AE9CF83E0E81218C0F6
:1003E000640C751C4614570409F45CC0F201619159
:1003F0002F01062E000C770BF1E0A8018CE591E0AF
:10040000FF1203C00E94230AEDCF0E94290AEACFFF
:1004100084E0E81215C0E1E06E1A710808F442C0E9
:10042000F201619171912F01F1E0A8018CE591E059
:10043000FF1203C00E94230AEECF0E94290AEBCFCD
:1004400085E0E81215C0E1E06E1A710858F1F2017A
:1004500041915191619171912F01F1E098018CE5E9
:1004600091E0FF1202C0AAD7EECF0E94390AEBCF6B
:1004700086E0E81217C0B12CE1E06E1A710890F026
:10048000F20141915191619171912F01F1E095013A
:100490008CE591E0FF1203C00E94600BEDCF0E943B
:1004A000610BEACFDF91CF911F910F91FF90EF90F9
:1004B000CF90BF90AF909F908F907F906F905F9004
:1004C0004F9008958F929F92AF92BF92CF92DF92FA
:1004D000EF92FF920F931F93CF93DF9300D01F9261
:1004E000CDB7DEB7C0901401D0901501E090160191
:1004F000F0901701A701960160911F0270912002F0
:100500008091210290912202C0D2882341F0C092B2
:100510001F02D0922002E0922102F0922202C090AB
:100520001801D0901901E0901A01F0901B01A70169
:10053000960160912302709124028091250290918E
:100540002602A3D2882341F0C0922302D092240233
:10055000E0922502F0922602609127027091280213
:100560009E012D5F3F4FAE014F5F5F4F80E02DDE5C
:100570001A8180914102181709F4AFC060910401FB
:1005800070910501809106019091070120910C0165
:1005900030910D0140910E0150910F0112D26B016B
:1005A0007C018090100190901101A0901201B090F8
:1005B000130110934102C0923D02D0923E02E0929C
:1005C0003F02F092400211E0AC019B01C501B40171
:1005D0005CD218160CF410E0612F8DE09DDDA701B0
:1005E0009601C501B40151D21091210118162CF4C5
:1005F00011E08981811101C010E061E0111160E01A
:1006000089E08ADDC0901C01D0901D01E0901E01A0
:10061000F0901F01A70196016091FF017091000207
:10062000809101029091020230D2882341F0C09261
:10063000FF01D0920002E0920102F09202021B83BD
:10064000609113027091140280911502909116022C
:1006500020D2C62E60910B0270910C0280910D0287
:1006600090910E0216D2E62E60910F027091100248
:1006700080911102909112020CD2062F6091070214
:10068000709108028091090290910A0202D2162FFD
:10069000609103027091040280910502909106021C
:1006A000F8D1862F912C812C92E0A92E212F41E0A8
:1006B00050E0BE016D5F7F4FFCDD0F900F900F90FB
:1006C000DF91CF911F910F91FF90EF90DF90CF902E
:1006D000BF90AF909F908F90089560913D02709170
:1006E0003E0280913F029091400250CF8F929F92A4
:1006F000AF92BF92EF92FF921F93CF93DF9310922E
:10070000470110924601C9EFD1E08DE4FE0111923C
:100710008A95E9F711E01093430284E0E82E81E026
:10072000F82EF70180899189A289B3898EA39FA3AE
:10073000A8A7B9A784899589A689B7898AA79BA7FD
:10074000ACA7BDA7812C912C5401839489A29AA2B5
:10075000ABA2BCA281E090E099AB88AB82E090E0D4
:100760009FA78EA780E0A4DD1DA31CAE10934502B9
:100770008092360290923702A0923802B0923902EB
:1007800061E08DE0C2DC10933A021CAA109344028F
:100790008DAA9EAAAFAAB8AE61E089E0B6DC19AF17
:1007A000188210934202F701808D918DA28DB38D36
:1007B0008E839F83A887B98789829A82AB82BC8205
:1007C0001A861B861C861D8680E090E0A0E8BFE3A9
:1007D0008E879F87A88BB98B1A8A1B8A1C8A1D8AD1
:1007E0001E8A1F8A188E198E1A8E1B8E1C8E1D8EC5
:1007F00080E05EDD1D83F701868D80934102848158
:100800009581A681B78180933D0290933E02A0938B
:100810003F02B0934002DF91CF911F91FF90EF9084
:10082000BF90AF909F908F90089580911902811191
:1008300003C081E08093190280913502811103C0C9
:1008400081E08093350280912D02811103C081E007
:1008500080932D028091F901811103C081E0809382
:10086000F901089526E030E040E855E260E070E0EC
:1008700090E080E000C0892B19F48CE591E023C45E
:1008800008950895CF92DF92EF92FF920F931F93F6
:100890005ED2609348017093490180934A0190931E
:1008A0004B0100914C0110914D0120914E0130916E
:1008B0004F016B017C01C01AD10AE20AF30A9701C9
:1008C0008601003117422105310508F160934C0182
:1008D00070934D0180934E0190934F0125D037D2F4
:1008E00000914C0110914D0120914E0130914F012A
:1008F000601B710B820B930B603177428105910570
:1009000070F081E090E0909352018093510181E07A
:100910001F910F91FF90EF90DF90CF90089510926C
:10092000520110925101F3CF8091500191E0980F44
:1009300090935001882349F021E030E03093520138
:1009400020935101809350010895BCDD80915001A6
:100950008150F8CFCF93DF93109247021092460256
:100960001BD280DFC0912301D0912401198218820B
:10097000BDDEF89486DF81E028813981232B09F0E0
:1009800080E080934602789480914602811107C0EE
:100990004CDFF89490E080E0DF91CF91089581E002
:1009A00028813981232B09F480E0809347029091BC
:1009B000470281E0911180E08093460263DFE4CF3B
:1009C0005058BB27AA270ED0CBC0BCD030F0C1D026
:1009D00020F031F49F3F11F41EF4B1C00EF4E09505
:1009E000E7FBA7C0E92FCDD080F3BA1762077307E2
:1009F0008407950718F071F49EF5E5C00EF4E095B4
:100A00000B2EBA2FA02D0B01B90190010C01CA01C8
:100A1000A0011124FF27591B99F0593F50F4503E73
:100A200068F11A16F040A22F232F342F4427585F65
:100A3000F3CF469537952795A795F0405395C9F77D
:100A40007EF41F16BA0B620B730B840BBAF0915035
:100A5000A1F0FF0FBB1F661F771F881FC2F70EC0D4
:100A6000BA0F621F731F841F48F4879577956795A7
:100A7000B795F7959E3F08F0B3CF9395880F08F090
:100A80009927EE0F9795879508952FD008F481E068
:100A900008957FD088F09F5790F0B92F9927B751CC
:100AA000A0F0D1F0660F771F881F991F1AF0BA9532
:100AB000C9F712C0B13081F086D0B1E0089583C08B
:100AC000672F782F8827B85F39F0B93FCCF3869528
:100AD00077956795B395D9F73EF490958095709585
:100AE00061957F4F8F4F9F4F0895990F0008550FC5
:100AF000AA0BE0E8FEEF16161706E807F907C0F0A4
:100B000012161306E407F50798F0621B730B840BAB
:100B1000950B39F40A2661F0232B242B252B21F485
:100B200008950A2609F4A140A6958FEF811D811D25
:100B3000089597F99F6780E870E060E008959FEF5F
:100B400080EC089500240A94161617061806090664
:100B5000089500240A941216130614060506089533
:100B6000092E0394000C11F4882352F0BB0F40F4BB
:100B7000BF2B11F460FF04C06F5F7F4F8F4F9F4FFB
:100B8000089557FD9058440F551F59F05F3F71F07D
:100B90004795880F97FB991F61F09F3F79F08795E4
:100BA0000895121613061406551FF2CF4695F1DF6D
:100BB00008C0161617061806991FF1CF86957105FD
:100BC000610508940895E894BB2766277727CB0131
:100BD00097F908958ADF08F48FEF08950BD0C0CFFE
:100BE000B1DF28F0B6DF18F0952309F0A2CFA7CF28
:100BF0001124EACFC6DFA0F3959FD1F3950F50E003
:100C0000551F629FF001729FBB27F00DB11D639FBE
:100C1000AA27F00DB11DAA1F649F6627B00DA11D64
:100C2000661F829F2227B00DA11D621F739FB00D0A
:100C3000A11D621F839FA00D611D221F749F33277A
:100C4000A00D611D231F849F600D211D822F762F13
:100C50006A2F11249F5750408AF0E1F088234AF010
:100C6000EE0FFF1FBB1F661F771F881F915050405C
:100C7000A9F79E3F510570F05CCFA6CF5F3FECF324
:100C8000983EDCF3869577956795B795F795E79548
:100C90009F5FC1F7FE2B880F911D9695879597F959
:100CA00008951F920F920FB60F9211242F933F9326
:100CB0008F939F93AF93BF9380915401909155016F
:100CC000A0915601B09157013091530123E0230FB9
:100CD0002D3758F50196A11DB11D20935301809326
:100CE000540190935501A0935601B0935701809100
:100CF000580190915901A0915A01B0915B01019660
:100D0000A11DB11D8093580190935901A0935A01E0
:100D1000B0935B01BF91AF919F918F913F912F91C4
:100D20000F900FBE0F901F90189526E8230F029684
:100D3000A11DB11DD2CF2FB7F894609154017091CD
:100D4000550180915601909157012FBF08953FB7EB
:100D5000F8948091580190915901A0915A01B09155
:100D60005B0126B5A89B05C02F3F19F00196A11D78
:100D7000B11D3FBFBA2FA92F982F8827BC01CD01E5
:100D8000620F711D811D911D42E0660F771F881F44
:100D9000991F4A95D1F70895789484B5826084BDEF
:100DA00084B5816084BD85B5826085BD85B581606F
:100DB00085BDEEE6F0E0808181608083E1E8F0E0CF
:100DC0001082808182608083808181608083E0E8FE
:100DD000F0E0808181608083E1EBF0E080818460DD
:100DE0008083E0EBF0E0808181608083EAE7F0E0DF
:100DF0008081846080838081826080838081816043
:100E000080838081806880831092C1000895833040
:100E100081F028F4813099F08230A9F0089587306C
:100E2000A9F08830C9F08430B1F4809180008F7DC2
:100E300003C0809180008F7780938000089584B5EF
:100E40008F7784BD089584B58F7DFBCF8091B000EE
:100E50008F778093B00008958091B0008F7DF9CF97
:100E6000CF93DF9390E0FC01E458FF4F249180572B
:100E70009F4FFC0184918823C9F090E0880F991F4F
:100E8000FC01E255FF4FA591B491FC01EC55FF4FD9
:100E9000C591D49161110DC09FB7F8948C912095A4
:100EA00082238C938881282328839FBFDF91CF9151
:100EB0000895623051F49FB7F8943C91822F809549
:100EC00083238C93E8812E2BEFCF8FB7F894EC918E
:100ED0002E2B2C938FBFEACF1F93CF93DF93282F16
:100EE00030E0F901E859FF4F8491F901E458FF4FD0
:100EF000D491F901E057FF4FC491CC23A1F0162FF4
:100F0000811185DFEC2FF0E0EE0FFF1FEC55FF4F56
:100F1000A591B4918FB7F894EC91111108C0D095B8
:100F2000DE23DC938FBFDF91CF911F910895DE2BDD
:100F3000F8CFFC01918D228D892F90E0805C9F4F2E
:100F4000821B91098F7399270895FC01918D828DE1
:100F5000981731F0828DE80FF11D858D90E008958E
:100F60008FEF9FEF0895FC01918D828D981761F0AE
:100F7000A28DAE0FBF2FB11D5D968C91928D9F5F9C
:100F80009F73928F90E008958FEF9FEF0895FC017B
:100F9000538D448D252F30E0842F90E0821B930BDE
:100FA000541710F0CF96089501970895FC01A48D71
:100FB000A80FB92FB11DA35ABF4F2C91848D90E07B
:100FC00001968F739927848FA689B7892C93A0895E
:100FD000B1898C91837080648C93938D848D9813E8
:100FE00006C00288F389E02D80818F7D808308957B
:100FF000CF93DF93EC01888D8823B1F0AA89BB8958
:10100000E889F9898C9185FD03C0808186FD0CC03B
:101010000FB607FCF7CF8C9185FFF2CF808185FF5B
:10102000EDCFCE01C3DFEACFDF91CF910895EF92EC
:10103000FF920F931F93CF93DF93EC0181E0888F92
:101040009B8D8C8D98131AC0E889F989808185FF62
:1010500015C09FB7F894EE89FF896083E889F98904
:1010600080818370806480839FBF81E090E0DF9106
:10107000CF911F910F91FF90EF900895F62E0B8D59
:1010800010E00F5F1F4F0F731127E02E8C8D8E1114
:101090000BC00FB607FCFACFE889F989808185FF7C
:1010A000F5CFCE0183DFF2CFEB8DEC0FFD2FF11DDD
:1010B000E35AFF4FF0829FB7F8940B8FEA89FB89C0
:1010C00080818062D0CFCF92DF92EF92FF921F9308
:1010D000CF93DF93EC016A017B01122FE889F98934
:1010E00082E08083C11481EED806E104F10499F016
:1010F00060E079E08DE390E0A70196015AD321509A
:10110000310941095109569547953795279521157C
:1011100080E1380790F0E889F989108260E874E886
:101120008EE190E0A701960144D321503109410995
:1011300051095695479537952795EC85FD85308360
:10114000EE85FF852083188EEC89FD891083EA895E
:10115000FB89808180618083EA89FB898081886046
:101160008083EA89FB89808180688083EA89FB89A2
:1011700080818F7D8083DF91CF911F91FF90EF90D1
:10118000DF90CF9008951F920F920FB60F92112407
:101190002F938F939F93EF93FF93E0916C01F091C6
:1011A0006D018081E0917201F091730182FD1BC09D
:1011B0009081809175018F5F8F73209176018217E6
:1011C00041F0E0917501F0E0E45AFE4F958F809375
:1011D0007501FF91EF919F918F912F910F900FBE0D
:1011E0000F901F9018958081F4CF1F920F920FB629
:1011F0000F9211242F933F934F935F936F937F939D
:101200008F939F93AF93BF93EF93FF938CE591E000
:10121000CDDEFF91EF91BF91AF919F918F917F9123
:101220006F915F914F913F912F910F900FBE0F9053
:101230001F901895ECE5F1E01382128288EE93E09E
:10124000A0E0B0E084839583A683B78389E291E030
:101250009183808385EC90E09587848784EC90E08F
:101260009787868780EC90E0918B808B81EC90E073
:10127000938B828B82EC90E0958B848B86EC90E054
:10128000978B868B118E128E138E148E0895AF92CB
:10129000BF92CF92DF92EF92FF920F931F93CF9363
:1012A000DF936C017B018B01040F151FEB015E01C5
:1012B000AE18BF08C017D10759F06991D601ED915A
:1012C000FC910190F081E02DC6010995892B79F7F9
:1012D000C501DF91CF911F910F91FF90EF90DF90AB
:1012E000CF90BF90AF900895FB0101900020E9F7E7
:1012F0003197AF01461B570BDC01ED91FC91028049
:10130000F381E02D09946115710509F0EDCF90E0AE
:1013100080E00895DC01ED91FC910190F081E02DD9
:10132000099467E371E0E0CF8F929F92AF92BF92F2
:10133000EF92FF920F931F93CF93DF93CDB7DEB75A
:10134000A1970FB6F894DEBF0FBECDBF7C01FA01A6
:10135000CB0119A2223008F42AE08E010F5D1F4F45
:10136000822E912CB12CA12CBF01A501940121D278
:10137000F901CA016A3004F5605DD8016E938D01F0
:10138000232B242B252B81F790E080E0109719F078
:10139000BD01C701A9DFA1960FB6F894DEBF0FBE4D
:1013A000CDBFDF91CF911F910F91FF90EF90BF9034
:1013B000AF909F908F900895695CDFCFCF92DF92BE
:1013C000EF92FF920F931F93CF93DF932115310577
:1013D00081F4DC01ED91FC910190F081E02D642F0E
:1013E000DF91CF911F910F91FF90EF90DF90CF9001
:1013F00009942A303105F1F42AE077FF1BC06A0115
:101400007B01EC016DE286DF8C0144275527BA0190
:101410004C195D096E097F092AE0CE0185DF800F36
:10142000911FDF91CF911F910F91FF90EF90DF906F
:10143000CF900895DF91CF911F910F91FF90EF9082
:10144000DF90CF9071CF9A01AB01770F660B770BCE
:10145000B5CF0F931F93CF93DF93EC01F4DF8C0193
:10146000CE015FDF800F911FDF91CF911F910F9110
:1014700008950F931F93CF93DF93EC019FDF8C01AF
:10148000CE014FDF800F911FDF91CF911F910F9100
:1014900008952115310541F4DC01ED91FC91019095
:1014A000F081E02D642F09943FCF9A01462F50E040
:1014B00070E060E0EECF0F931F93CF93DF93EC01CA
:1014C000F4DF8C01CE012DDF800F911FDF91CF91D2
:1014D0001F910F9108959A01AB0170E060E0D9CFA0
:1014E0000F931F93CF93DF93EC01F5DF8C01CE01B7
:1014F00018DF800F911FDF91CF911F910F910895F9
:101500000F931F93CF93DF93EC01C3DF8C01CE01C8
:1015100008DF800F911FDF91CF911F910F910895E8
:101520002F923F924F925F926F927F928F929F92F3
:10153000AF92BF92CF92DF92EF92FF921F93CF9321
:10154000DF93EC016A017B01722EAB019601CB01A6
:10155000B601FCD16AE371E0811123C04601570155
:10156000E894B7F82FEF3FEF4FE75FE7C501B4010D
:10157000EDD181110BC02FEF3FEF4FE75FE7C501C2
:10158000B40183DA6EE371E018165CF02FEF3FEFE1
:101590004FE75FE4C701B6011DDB1816ACF462E447
:1015A00071E0CE01DF91CF911F91FF90EF90DF901E
:1015B000CF90BF90AF909F908F907F906F905F90F3
:1015C0004F903F902F9090CE2FEF3FEF4FE75FEC83
:1015D000C701B6015ADA87FDE2CF20E030E0A90169
:1015E000C701B60152DA312C212C87FF08C06DE209
:1015F000CE0190DE1C01F7FAF094F7F8F09410E0B9
:1016000060E070E080E09FE3711639F020E030E0A8
:1016100040E251E4F6D01F5FF7CFA7019601D1D980
:101620002B013C0136DA4B015C012AE0BC01A4012C
:10163000CE017ADE7C01E20CF31C112371F1C501AD
:10164000B40147D19B01AC01C301B201B9D94B012F
:101650005C016EE2CE015EDEE80EF91E1150E8F08C
:1016600020E030E040E251E4C501B401B7DA2B01DB
:101670003C010FDA4B014AE050E0CE012CDFE80ECE
:10168000F91EB40190E080E024D19B01AC01C301BC
:10169000B20196D94B015C01E1CFC701DF91CF9137
:1016A0001F91FF90EF90DF90CF90BF90AF909F90F1
:1016B0008F907F906F905F904F903F902F90089504
:1016C0002FCF0F931F93CF93DF93EC0129DF8C0172
:1016D000CE0127DE800F911FDF91CF911F910F91D7
:1016E00008950F931F93CF93DF93EC0124DB68875A
:1016F00079878A879B87E881F9810284F385E02DC9
:10170000CE01099597FF14C016DB088519852A8537
:101710003B85601B710B820B930B0C811D812E810D
:101720003F81601771078207930728F38FEF9FEFC0
:10173000DF91CF911F910F910895AF92BF92CF92F9
:10174000DF92EF92FF920F931F93CF93DF935C0191
:101750007B018B01040F151FEB016E01CE18DF0812
:10176000C017D10731F0C501BCDF97FD02C08993D6
:10177000F4CFC601DF91CF911F910F91FF90EF90B1
:10178000DF90CF90BF90AF900895AA1BBB1B51E193
:1017900007C0AA1FBB1FA617B70710F0A61BB70BE1
:1017A000881F991F5A95A9F780959095BC01CD0186
:1017B0000895A1E21A2EAA1BBB1BFD010DC0AA1F92
:1017C000BB1FEE1FFF1FA217B307E407F50720F0AA
:1017D000A21BB30BE40BF50B661F771F881F991F25
:1017E0001A9469F760957095809590959B01AC016E
:1017F000BD01CF010895EE0FFF1F0590F491E02D7C
:1018000009940CD0ADC9A5D940F09CD930F021F491
:101810005F3F19F08EC95111D7C991C9B2D998F358
:101820009923C9F35523B1F3951B550BBB27AA2761
:1018300062177307840738F09F5F5F4F220F331FD3
:10184000441FAA1FA9F333D00E2E3AF0E0E830D09F
:1018500091505040E695001CCAF729D0FE2F27D0A2
:10186000660F771F881FBB1F261737074807AB0770
:10187000B0E809F0BB0B802DBF01FF2793585F4FE5
:101880002AF09E3F510568F054C99EC95F3FECF3B2
:10189000983EDCF3869577956795B795F7959F5FAA
:1018A000C9F7880F911D9695879597F90895E1E0FE
:1018B000660F771F881FBB1F621773078407BA075D
:1018C00020F0621B730B840BBA0BEE1F88F7E095B8
:1018D0000895E89409C097FB3EF490958095709523
:1018E00061957F4F8F4F9F4F9923A9F0F92F96E96C
:1018F000BB279395F695879577956795B795F111E1
:10190000F8CFFAF4BB0F11F460FF1BC06F5F7F4F7D
:101910008F4F9F4F16C0882311F096E911C077238F
:1019200021F09EE8872F762F05C0662371F096E898
:10193000862F70E060E02AF09A95660F771F881F67
:10194000DAF7880F9695879597F90895CED8880B82
:08195000990B0895F894FFCFF4
:101958005501920000000000000000000000803FD8
:101968000000FA43000000000000404000000000B2
:1019780000000046010000000017084709C707F8E3
:10198800079907B307A5070D0A006E616E00696E17
:0619980066006F76660098
:00000001FF
